:100000000C942A000C943F000C943F000C943F0089
:100010000C943F000C943F000C943F000C943F0064
:100020000C943F000C943F000C943F000C943F0054
:100030000C943F000C943F000C943F000C943F0044
:100040000C943F000C943F000C943F000C943F0034
:100050000C943F0011241FBECFE5D8E0DEBFCDBF1A
:1000600010E0A0E6B0E0EAEEF8E202C005900D92E2
:10007000A43AB107D9F70E943D120C9473140C9462
:100080000000EF92FF920F931F937B018C0120E001
:1000900030E040E05FE40E94410388238CF0C80117
:1000A000B70120E030E040E05FE40E94B9010E9427
:1000B000A1039B01AC01205030404040504806C095
:1000C000C801B7010E94A1039B01AC01B901CA019B
:1000D0001F910F91FF90EF900895A0E0B0E0E3E74B
:1000E000F0E00C943C14DC012B01FA019C9192305D
:1000F00008F439C1EB018881823008F433C19430AF
:1001000069F4843009F02FC111969C91119789816F
:10011000981709F428C1A2E7B0E025C1843009F49A
:1001200021C18230A9F4923009F01DC19A01AD01BC
:1001300088E0EA010990AE01E90109929E0181502F
:10014000C1F7E201898111969C918923818308C1BD
:10015000923009F407C112962D903C901397EB0151
:100160008A819B811496AD90BD90CD90DC901797BD
:10017000EC80FD800E811F819101281B390BB90194
:1001800037FF04C066277727621B730B6032710547
:100190000CF061C0121613066CF537014801062EEB
:1001A00004C096948794779467940A94D2F721E0D8
:1001B00030E040E050E004C0220F331F441F551FC1
:1001C0006A95D2F721503040404050402E213F21C7
:1001D00040235123211531054105510521F021E02E
:1001E00030E040E050E079018A01E628F72808294C
:1001F00019293CC0232BD1F1260E371E35014601AB
:10020000062E04C096948794779467940A94D2F744
:1002100021E030E040E050E004C0220F331F441FD3
:10022000551F6A95D2F721503040404050402A2156
:100230003B214C215D21211531054105510521F05E
:1002400021E030E040E050E059016A01A628B728DB
:10025000C828D9280BC0821593052CF01C01AA24AC
:10026000BB24650103C0EE24FF24870111969C91F5
:10027000D20111968C91981709F445C0992339F051
:10028000A80197012A193B094C095D0906C0A6017E
:1002900095012E193F09400B510B57FD08C01182E3
:1002A0003382228224833583468357831DC081E0B5
:1002B00081833382228288279927DC01821B930B5A
:1002C000A40BB50B84839583A683B7830DC0220F3F
:1002D000331F441F551F24833583468357838281F0
:1002E000938101979383828324813581468157814D
:1002F000DA01C9010197A109B1098F5F9F4FAF4F83
:10030000BF4328F30BC0918333822282EA0CFB1C8B
:100310000C1D1D1DE482F5820683178383E0808314
:10032000248135814681578157FF1AC0C901AA2708
:1003300097FDA095BA2F81709070A070B0705695FF
:10034000479537952795822B932BA42BB52B848328
:100350009583A683B7838281938101969383828359
:10036000DF0101C0D201CD01CDB7DEB7E2E10C94CF
:100370005814A0E2B0E0EFEBF1E00C94481469836C
:100380007A838B839C832D833E834F835887E9E058
:10039000EE2EF12CEC0EFD1ECE010196B7010E944F
:1003A000CA048E010F5E1F4FCE010596B8010E9450
:1003B000CA048A8991E089278A8BC701B801AE01F6
:1003C000475E5F4F0E946D000E94F503A096E6E035
:1003D0000C946414A0E2B0E0E0EFF1E00C94481457
:1003E00069837A838B839C832D833E834F835887D5
:1003F000F9E0EF2EF12CEC0EFD1ECE010196B701B7
:100400000E94CA048E010F5E1F4FCE010596B801EF
:100410000E94CA04C701B801AE01475E5F4F0E9447
:100420006D000E94F503A096E6E00C946414A0E22F
:10043000B0E0EDE1F2E00C943C1469837A838B83A5
:100440009C832D833E834F835887CE010196BE0146
:10045000675F7F4F0E94CA04CE010596BE016F5EA2
:100460007F4F0E94CA049985923088F08989823032
:10047000C8F0943019F4823051F404C0843029F467
:10048000923081F482E790E0C6C0923049F420E0D7
:100490009A858A89981321E02A87CE010996BBC0E4
:1004A000823049F420E09A858A89981321E02A8BCA
:1004B000CE014196B0C02D843E844F8458886D880B
:1004C0007E888F88988CEE24FF248701AA24BB2481
:1004D000650140E050E060E070E0E0E0F0E0C10184
:1004E00081709070892BE9F0E60CF71C081D191D2E
:1004F0009A01AB012A0D3B1D4C1D5D1D80E090E073
:10050000A0E0B0E0E614F7040805190520F481E046
:1005100090E0A0E0B0E0BA01A901480F591F6A1F9E
:100520007B1FAA0CBB1CCC1CDD1C97FE08C081E005
:1005300090E0A0E0B0E0A82AB92ACA2ADB2A3196C6
:10054000E032F10549F0660C771C881C991C569422
:10055000479437942794C3CFFA85EA892B893C893D
:100560008B859C85280F391F2E5F3F4F17C0CA010E
:1005700081709070892B61F016950795F794E79438
:1005800080E090E0A0E0B0E8E82AF92A0A2B1B2BD3
:1005900076956795579547952F5F3F4F77FDE7CF46
:1005A0000CC0440F551F661F771F17FD4160EE0CEE
:1005B000FF1C001F111F21503040403090E05907B0
:1005C00090E0690790E4790760F32B8F3C8FDB01A3
:1005D000CA018F779070A070B07080349105A1052A
:1005E000B10561F447FD0AC0E114F10401051105EC
:1005F00029F0405C5F4F6F4F7F4F40781A8EFE1797
:1006000011F081E08A8F4D8F5E8F6F8F78A383E02A
:10061000898FCE0149960E94F503A096E2E10C94E1
:100620005814A8E1B0E0E7E1F3E00C9448146983C2
:100630007A838B839C832D833E834F83588789E005
:10064000E82EF12CEC0EFD1ECE010196B7010E94A2
:10065000CA048E010F5E1F4FCE010596B8010E949D
:10066000CA048985823040F08989823028F0C70128
:10067000B8010E94420501C08FEF6896E6E00C9435
:100680006414A8E1B0E0E7E4F3E00C944814698353
:100690007A838B839C832D833E834F83588789E0A5
:1006A000E82EF12CEC0EFD1ECE010196B7010E9442
:1006B000CA048E010F5E1F4FCE010596B8010E943D
:1006C000CA048985823040F08989823028F0C701C8
:1006D000B8010E94420501C08FEF6896E6E00C94D5
:1006E0006414A8E1B0E0E7E7F3E00C9448146983F0
:1006F0007A838B839C832D833E834F83588789E045
:10070000E82EF12CEC0EFD1ECE010196B7010E94E1
:10071000CA048E010F5E1F4FCE010596B8010E94DC
:10072000CA048985823040F08989823028F0C70167
:10073000B8010E94420501C081E06896E6E00C9491
:100740006414ACE0B0E0E7EAF3E00C944C14698385
:100750007A838B839C83CE010196BE016B5F7F4FB2
:100760000E94CA048D81823061F1823050F1843060
:1007700021F48E81882351F12EC02F81388537FDD9
:1007800020C06E812F3131051CF06623F9F023C0A3
:100790008EE190E0821B930B29853A854B855C8521
:1007A00004C056954795379527958A95D2F76623C5
:1007B000B1F050954095309521953F4F4F4F5F4F89
:1007C0000EC020E030E040E050E009C02FEF3FEFE6
:1007D0004FEF5FE704C020E030E040E050E8B901AF
:1007E000CA012C96E2E00C946814DF92EF92FF921B
:1007F0000F931F93FC01E480F58006811781D1805F
:100800008081823048F480E090E0A0E1B0E0E82A06
:10081000F92A0A2B1B2BA5C0843009F49FC0823013
:1008200021F4EE24FF24870105C0E114F104010541
:10083000110519F4E0E0F0E096C0628173819FEF4A
:10084000623879070CF05BC022E83FEF261B370BBC
:100850002A3131052CF020E030E040E050E02AC0A1
:10086000B801A701022E04C0769567955795479564
:100870000A94D2F781E090E0A0E0B0E004C0880FD5
:10088000991FAA1FBB1F2A95D2F70197A109B10989
:100890008E219F21A023B1230097A105B10521F04E
:1008A00081E090E0A0E0B0E09A01AB01282B392B69
:1008B0004A2B5B2BDA01C9018F779070A070B07062
:1008C00080349105A105B10539F427FF09C0205CEA
:1008D0003F4F4F4F5F4F04C0215C3F4F4F4F5F4F23
:1008E000E0E0F0E02030A0E03A07A0E04A07A0E412
:1008F0005A0710F0E1E0F0E079018A0127C0603882
:10090000710564F5FB01E158FF4FD801C7018F77EE
:100910009070A070B07080349105A105B10539F4D4
:10092000E7FE0DC080E490E0A0E0B0E004C08FE3FB
:1009300090E0A0E0B0E0E80EF91E0A1F1B1F17FFB1
:1009400005C016950795F794E794319687E01695BC
:100950000795F794E7948A95D1F705C0EE24FF2414
:100960008701EFEFF0E06E2F679566276795902F70
:100970009F77D794DD24D7948E2F8695492F462BC9
:10098000582F5D29B701CA011F910F91FF90EF9079
:10099000DF900895FC01DB01408151812281622FAB
:1009A0006F7770E0221F2227221F9381892F880FE3
:1009B000822B282F30E0991F9927991F11969C931D
:1009C000119721153105A9F54115510561057105ED
:1009D00011F482E037C082E89FEF13969C938E93C8
:1009E00012979A01AB0167E0220F331F441F551F76
:1009F0006A95D1F783E08C930DC0220F331F441FFB
:100A0000551F12968D919C911397019713969C9365
:100A10008E931297203080E0380780E0480780E40A
:100A2000580758F314962D933D934D935C93179765
:100A300008952F3F310579F4411551056105710580
:100A400019F484E08C93089564FF03C081E08C93D3
:100A500012C01C9210C02F57304013963C932E9317
:100A6000129783E08C9387E0440F551F661F771F12
:100A70008A95D1F7706414964D935D936D937C9332
:100A8000179708951F93DC01FB019C91923008F4A5
:100A900047C08081823008F443C0943051F41196ED
:100AA0001C91843099F58181682F70E0611B710978
:100AB0003FC0843021F0923031F48230B9F181812D
:100AC000882389F12DC011961C9111978230F1F085
:100AD00081811817D9F412962D913C911397828138
:100AE00093818217930794F028173907BCF0149666
:100AF0008D919D910D90BC91A02D248135814681D1
:100B00005781281739074A075B0718F4112341F06A
:100B10000AC082179307A407B50740F4112319F000
:100B200061E070E005C06FEF7FEF02C060E070E051
:100B3000CB011F910895DF93CF93CDB7DEB72797F1
:100B40000FB6F894DEBF0FBECDBF89836A834B8397
:100B50008B81813009F06FC08981282F30E03F837D
:100B60002E838E819F818130910549F12E813F81B5
:100B7000223031052CF48E819F81009761F0D2C024
:100B80002E813F812230310571F18E819F8183302A
:100B90009105E9F1C7C0AAE3B0E0EAE3F0E08081A3
:100BA000482F8A81282F30E081E090E0022E02C099
:100BB000880F991F0A94E2F7842B8C93B3C0A7E3A4
:100BC000B0E0E7E3F0E08081482F8A81282F30E011
:100BD00081E090E0022E02C0880F991F0A94E2F78C
:100BE000842B8C939FC0A4E3B0E0E4E3F0E0808129
:100BF000482F8A81282F30E081E090E0022E02C049
:100C0000880F991F0A94E2F7842B8C938BC0A1E381
:100C1000B0E0E1E3F0E08081482F8A81282F30E0C6
:100C200081E090E0022E02C0880F991F0A94E2F73B
:100C3000842B8C9377C08B81882309F073C08981C2
:100C4000282F30E03D832C838C819D81813091055C
:100C500059F12C813D81223031052CF48C819D810C
:100C6000009769F05FC02C813D812230310589F108
:100C70008C819D818330910509F440C053C0AAE363
:100C8000B0E0EAE3F0E08081482F8A81282F30E04D
:100C900081E090E0022E02C0880F991F0A94E2F7CB
:100CA000809584238C933EC0A7E3B0E0E7E3F0E0B7
:100CB0008081482F8A81282F30E081E090E0022E49
:100CC00002C0880F991F0A94E2F7809584238C93C1
:100CD00029C0A4E3B0E0E4E3F0E08081482F8A81FA
:100CE000282F30E081E090E0022E02C0880F991F8B
:100CF0000A94E2F7809584238C9314C0A1E3B0E0BA
:100D0000E1E3F0E08081482F8A81282F30E081E004
:100D100090E0022E02C0880F991F0A94E2F7809596
:100D200084238C9327960FB6F894DEBF0FBECDBFF9
:100D3000CF91DF910895DF93CF93CDB7DEB727979B
:100D40000FB6F894DEBF0FBECDBF89836A834B8395
:100D50008B81882309F06FC08981282F30E03F8381
:100D60002E838E819F818130910549F12E813F81B3
:100D7000223031052CF48E819F81009761F0D2C022
:100D80002E813F812230310571F18E819F81833028
:100D90009105E9F1C7C0ABE3B0E0EBE3F0E080819F
:100DA000482F8A81282F30E081E090E0022E02C097
:100DB000880F991F0A94E2F7842B8C93B3C0A8E3A1
:100DC000B0E0E8E3F0E08081482F8A81282F30E00E
:100DD00081E090E0022E02C0880F991F0A94E2F78A
:100DE000842B8C939FC0A5E3B0E0E5E3F0E0808125
:100DF000482F8A81282F30E081E090E0022E02C047
:100E0000880F991F0A94E2F7842B8C938BC0A2E37E
:100E1000B0E0E2E3F0E08081482F8A81282F30E0C3
:100E200081E090E0022E02C0880F991F0A94E2F739
:100E3000842B8C9377C08B81813009F073C08981BA
:100E4000282F30E03D832C838C819D81813091055A
:100E500059F12C813D81223031052CF48C819D810A
:100E6000009769F05FC02C813D812230310589F106
:100E70008C819D818330910509F440C053C0ABE360
:100E8000B0E0EBE3F0E08081482F8A81282F30E04A
:100E900081E090E0022E02C0880F991F0A94E2F7C9
:100EA000809584238C933EC0A8E3B0E0E8E3F0E0B3
:100EB0008081482F8A81282F30E081E090E0022E47
:100EC00002C0880F991F0A94E2F7809584238C93BF
:100ED00029C0A5E3B0E0E5E3F0E08081482F8A81F6
:100EE000282F30E081E090E0022E02C0880F991F89
:100EF0000A94E2F7809584238C9314C0A2E3B0E0B7
:100F0000E2E3F0E08081482F8A81282F30E081E001
:100F100090E0022E02C0880F991F0A94E2F7809594
:100F200084238C9327960FB6F894DEBF0FBECDBFF7
:100F3000CF91DF910895DF93CF9300D000D0CDB74C
:100F4000DEB789836A838981282F30E03C832B8335
:100F50008B819C818130910549F12B813C8122302C
:100F600031052CF48B819C81009761F05AC02B8154
:100F70003C812230310571F18B819C818330910558
:100F8000E9F14FC0ABE3B0E0EBE3F0E08081482F44
:100F90008A81282F30E081E090E0022E02C0880F85
:100FA000991F0A94E2F784278C933BC0A8E3B0E032
:100FB000E8E3F0E08081482F8A81282F30E081E04B
:100FC00090E0022E02C0880F991F0A94E2F784274E
:100FD0008C9327C0A5E3B0E0E5E3F0E08081482FE3
:100FE0008A81282F30E081E090E0022E02C0880F35
:100FF000991F0A94E2F784278C9313C0A2E3B0E010
:10100000E2E3F0E08081482F8A81282F30E081E000
:1010100090E0022E02C0880F991F0A94E2F78427FD
:101020008C930F900F900F900F90CF91DF910895B8
:10103000DF93CF9300D000D000D0CDB7DEB7898347
:101040006A835C834B838981282F30E03E832D8324
:101050004D815E814130510559F18D819E818230F3
:10106000910534F42D813E812115310569F05BC075
:101070004D815E814230510579F18D819E818330B1
:10108000910509F43DC04FC0E9E3F0E08081282FCD
:1010900030E08A81882F90E0A90102C055954795DC
:1010A0008A95E2F7CA018170EB81FC8180833BC0A5
:1010B000E6E3F0E08081282F30E08A81882F90E0FD
:1010C000A90102C0559547958A95E2F7CA0181703A
:1010D000EB81FC81808327C0E3E3F0E08081282F4F
:1010E00030E08A81882F90E0A90102C0559547958C
:1010F0008A95E2F7CA018170EB81FC81808313C07D
:10110000E0E3F0E08081282F30E08A81882F90E0B2
:10111000A90102C0559547958A95E2F7CA018170E9
:10112000EB81FC81808326960FB6F894DEBF0FBE5C
:10113000CDBFCF91DF910895DF93CF9300D000D042
:1011400000D0CDB7DEB789836A838A81813009F008
:1011500006C18981282F30E03E832D838D819E81B9
:101160008130910509F450C02D813E812230310536
:101170002CF48D819E81009771F0FAC12D813E8102
:101180002230310509F479C08D819E81833091052B
:1011900009F4ACC0EDC1AAE3B0E0EAE3F0E080817D
:1011A00081608C93AAE3B0E0EAE3F0E080818260A2
:1011B0008C93AAE3B0E0EAE3F0E0808184608C9352
:1011C000AAE3B0E0EAE3F0E0808188608C93AAE3D0
:1011D000B0E0EAE3F0E0808180618C93AAE3B0E0C4
:1011E000EAE3F0E0808180628C93AAE3B0E0EAE376
:1011F000F0E0808180648C93AAE3B0E0EAE3F0E061
:10120000808180688C93B4C1A7E3B0E0E7E3F0E0AD
:10121000808181608C93A7E3B0E0E7E3F0E0808118
:1012200082608C93A7E3B0E0E7E3F0E08081846024
:101230008C93A7E3B0E0E7E3F0E0808188608C93D3
:10124000A7E3B0E0E7E3F0E0808180618C93A7E35F
:10125000B0E0E7E3F0E0808180628C93A7E3B0E048
:10126000E7E3F0E0808180648C93A7E3B0E0E7E3FC
:10127000F0E0808180688C937BC1A4E3B0E0E4E37C
:10128000F0E0808181608C93A4E3B0E0E4E3F0E0DF
:10129000808182608C93A4E3B0E0E4E3F0E080819D
:1012A00084608C93A4E3B0E0E4E3F0E080818860A4
:1012B0008C93A4E3B0E0E4E3F0E0808180618C9360
:1012C000A4E3B0E0E4E3F0E0808180628C93A4E3E7
:1012D000B0E0E4E3F0E0808180648C93A4E3B0E0CC
:1012E000E4E3F0E0808180688C9342C1A1E3B0E048
:1012F000E1E3F0E0808181608C93A1E3B0E0E1E381
:10130000F0E0808182608C93A1E3B0E0E1E3F0E063
:10131000808184608C93A1E3B0E0E1E3F0E0808120
:1013200088608C93A1E3B0E0E1E3F0E0808180612C
:101330008C93A1E3B0E0E1E3F0E0808180628C93E4
:10134000A1E3B0E0E1E3F0E0808180648C93A1E36D
:10135000B0E0E1E3F0E0808180688C9309C18A818C
:10136000882309F005C18981282F30E03C832B8335
:101370008B819C818130910509F450C02B813C8187
:10138000223031052CF48B819C81009771F0F0C0E4
:101390002B813C812230310509F479C08B819C81FD
:1013A0008330910509F4ACC0E3C0AAE3B0E0EAE3FE
:1013B000F0E080818E7F8C93AAE3B0E0EAE3F0E076
:1013C00080818D7F8C93AAE3B0E0EAE3F0E0808136
:1013D0008B7F8C93AAE3B0E0EAE3F0E08081877F23
:1013E0008C93AAE3B0E0EAE3F0E080818F7E8C93F7
:1013F000AAE3B0E0EAE3F0E080818F7D8C93AAE37A
:10140000B0E0EAE3F0E080818F7B8C93AAE3B0E068
:10141000EAE3F0E080818F778C93AAC0A7E3B0E085
:10142000E7E3F0E080818E7F8C93A7E3B0E0E7E311
:10143000F0E080818D7F8C93A7E3B0E0E7E3F0E0FC
:1014400080818B7F8C93A7E3B0E0E7E3F0E08081BD
:10145000877F8C93A7E3B0E0E7E3F0E080818F7EA5
:101460008C93A7E3B0E0E7E3F0E080818F7D8C937D
:10147000A7E3B0E0E7E3F0E080818F7B8C93A7E304
:10148000B0E0E7E3F0E080818F778C9371C0A4E354
:10149000B0E0E4E3F0E080818E7F8C93A4E3B0E0E1
:1014A000E4E3F0E080818D7F8C93A4E3B0E0E4E39B
:1014B000F0E080818B7F8C93A4E3B0E0E4E3F0E084
:1014C0008081877F8C93A4E3B0E0E4E3F0E0808147
:1014D0008F7E8C93A4E3B0E0E4E3F0E080818F7D25
:1014E0008C93A4E3B0E0E4E3F0E080818F7B8C9305
:1014F000A4E3B0E0E4E3F0E080818F778C9338C020
:10150000A1E3B0E0E1E3F0E080818E7F8C93A1E382
:10151000B0E0E1E3F0E080818D7F8C93A1E3B0E067
:10152000E1E3F0E080818B7F8C93A1E3B0E0E1E325
:10153000F0E08081877F8C93A1E3B0E0E1E3F0E00D
:1015400080818F7E8C93A1E3B0E0E1E3F0E08081C5
:101550008F7D8C93A1E3B0E0E1E3F0E080818F7BAD
:101560008C93A1E3B0E0E1E3F0E080818F778C938E
:1015700026960FB6F894DEBF0FBECDBFCF91DF9198
:101580000895DF93CF9300D000D0CDB7DEB7898325
:101590006A838981282F30E03C832B838B819C8157
:1015A00081309105D1F02B813C81223031052CF422
:1015B0008B819C81009761F01EC02B813C81223081
:1015C000310581F08B819C818330910581F013C0BE
:1015D000EBE3F0E08A8180830EC0E8E3F0E08A81EB
:1015E000808309C0E5E3F0E08A81808304C0E2E300
:1015F000F0E08A8180830F900F900F900F90CF9131
:10160000DF910895DF93CF9300D00F92CDB7DEB76F
:1016100089838981282F30E03B832A838A819B81BB
:101620008130910509F458C02A813B81223031056F
:101630002CF48A819B81009771F010C12A813B8133
:101640002230310509F489C08A819B81833091055C
:1016500009F4C4C003C1ABE3B0E0EBE3F0E0908178
:1016600081E089278C93ABE3B0E0EBE3F0E090817D
:1016700082E089278C93ABE3B0E0EBE3F0E090816C
:1016800084E089278C93ABE3B0E0EBE3F0E090815A
:1016900088E089278C93ABE3B0E0EBE3F0E0908146
:1016A00080E189278C93ABE3B0E0EBE3F0E090813D
:1016B00080E289278C93ABE3B0E0EBE3F0E090812C
:1016C00080E489278C93ABE3B0E0EBE3F0E090811A
:1016D00080E889278C93C2C0A8E3B0E0E8E3F0E09B
:1016E000908181E089278C93A8E3B0E0E8E3F0E003
:1016F000908182E089278C93A8E3B0E0E8E3F0E0F2
:10170000908184E089278C93A8E3B0E0E8E3F0E0DF
:10171000908188E089278C93A8E3B0E0E8E3F0E0CB
:10172000908180E189278C93A8E3B0E0E8E3F0E0C2
:10173000908180E289278C93A8E3B0E0E8E3F0E0B1
:10174000908180E489278C93A8E3B0E0E8E3F0E09F
:10175000908180E889278C9381C0A5E3B0E0E5E320
:10176000F0E0908181E089278C93A5E3B0E0E5E388
:10177000F0E0908182E089278C93A5E3B0E0E5E377
:10178000F0E0908184E089278C93A5E3B0E0E5E365
:10179000F0E0908188E089278C93A5E3B0E0E5E351
:1017A000F0E0908180E189278C93A5E3B0E0E5E348
:1017B000F0E0908180E289278C93A5E3B0E0E5E337
:1017C000F0E0908180E489278C93A5E3B0E0E5E325
:1017D000F0E0908180E889278C9340C0A2E3B0E0DC
:1017E000E2E3F0E0908181E089278C93A2E3B0E00E
:1017F000E2E3F0E0908182E089278C93A2E3B0E0FD
:10180000E2E3F0E0908184E089278C93A2E3B0E0EA
:10181000E2E3F0E0908188E089278C93A2E3B0E0D6
:10182000E2E3F0E0908180E189278C93A2E3B0E0CD
:10183000E2E3F0E0908180E289278C93A2E3B0E0BC
:10184000E2E3F0E0908180E489278C93A2E3B0E0AA
:10185000E2E3F0E0908180E889278C930F900F906D
:101860000F90CF91DF910895DF93CF9300D000D0F8
:101870000F92CDB7DEB789837B836A838981282F56
:1018800030E03D832C838C819D818130910509F46A
:101890006FC02C813D81223031052CF48C819D81DB
:1018A000009771F06CC12C813D812230310509F423
:1018B000B7C08C819D818330910509F409C15FC156
:1018C000E9E3F0E080818170EA81FB8180838A8195
:1018D0009B81DC011196E9E3F0E0808186958170BF
:1018E0008C938A819B81DC011296E9E3F0E0808190
:1018F0008695869581708C938A819B81DC011396F5
:10190000E9E3F0E0808186958695869581708C93D9
:101910008A819B81DC011496E9E3F0E08081829565
:101920008F7081708C938A819B81DC011596E9E32D
:10193000F0E0808182958695877081708C938A8192
:101940009B81DC011696E9E3F0E080818295869523
:101950008695837081708C938A819B81DC011796B8
:10196000E9E3F0E08081881F8827881F8C9307C1F6
:10197000E6E3F0E080818170EA81FB8180838A81E7
:101980009B81DC011196E6E3F0E080818695817011
:101990008C938A819B81DC011296E6E3F0E08081E2
:1019A0008695869581708C938A819B81DC01139644
:1019B000E6E3F0E0808186958695869581708C932C
:1019C0008A819B81DC011496E6E3F0E080818295B8
:1019D0008F7081708C938A819B81DC011596E6E380
:1019E000F0E0808182958695877081708C938A81E2
:1019F0009B81DC011696E6E3F0E080818295869576
:101A00008695837081708C938A819B81DC01179607
:101A1000E6E3F0E08081881F8827881F8C93AFC0A1
:101A2000E3E3F0E080818170EA81FB8180838A8139
:101A30009B81DC011196E3E3F0E080818695817063
:101A40008C938A819B81DC011296E3E3F0E0808134
:101A50008695869581708C938A819B81DC01139693
:101A6000E3E3F0E0808186958695869581708C937E
:101A70008A819B81DC011496E3E3F0E0808182950A
:101A80008F7081708C938A819B81DC011596E3E3D2
:101A9000F0E0808182958695877081708C938A8131
:101AA0009B81DC011696E3E3F0E0808182958695C8
:101AB0008695837081708C938A819B81DC01179657
:101AC000E3E3F0E08081881F8827881F8C9357C04C
:101AD000E0E3F0E080818170EA81FB8180838A818C
:101AE0009B81DC011196E0E3F0E0808186958170B6
:101AF0008C938A819B81DC011296E0E3F0E0808187
:101B00008695869581708C938A819B81DC011396E2
:101B1000E0E3F0E0808186958695869581708C93D0
:101B20008A819B81DC011496E0E3F0E0808182955C
:101B30008F7081708C938A819B81DC011596E0E324
:101B4000F0E0808182958695877081708C938A8180
:101B50009B81DC011696E0E3F0E08081829586951A
:101B60008695837081708C938A819B81DC011796A6
:101B7000E0E3F0E08081881F8827881F8C930F9016
:101B80000F900F900F900F90CF91DF910895DF93FA
:101B9000CF93CDB7DEB76B970FB6F894DEBF0FBE0D
:101BA000CDBF8F87688B9E012B5F3F4F388F2F8B68
:101BB0004AE850E05A8F498F5AE05B8FE98DFA8DE1
:101BC0000080298D3A8D2F5F3F4F3A8F298FEF8903
:101BD000F88D00822F89388D2F5F3F4F388F2F8BE4
:101BE0003B8D31503B8F4B8D442341F78F85E82F40
:101BF000F0E0FE8BED8B2D893E892130310509F413
:101C000041C04D895E89423051052CF48D899E89F1
:101C1000009771F0B4C0ED89FE89E230F10509F456
:101C20005BC02D893E892330310509F47FC0A7C0F0
:101C30001C8224C08889282F30E0CE010596FC0143
:101C4000E20FF31F8081282F30E08C81882F90E0F5
:101C5000A90102C0559547958A95E2F7CA0181709E
:101C600090701C8A009711F451E05C8B80E06C81CD
:101C70004C890E949B068C818F5F8C838C8188307D
:101C8000C8F27DC01B8224C08889282F30E0CE0195
:101C90000596FC01E20FF31F8081282F30E08B8135
:101CA000882F90E0F90102C0F595E7958A95E2F753
:101CB000CF01817090701B8A009711F4F1E0FB8BCB
:101CC00081E06B814B890E949B068B818F5F8B83A8
:101CD0008B818830C8F253C01A8224C08889282F8B
:101CE00030E0CE010596FC01E20FF31F8081282F22
:101CF00030E08A81882F90E0A90102C05595479570
:101D00008A95E2F7CA01817090701A8A009711F4DF
:101D100051E05A8B82E06A814A890E949B068A813F
:101D20008F5F8A838A818830C8F229C0198224C0D3
:101D30008889282F30E0CE010596FC01E20FF31FC1
:101D40008081282F30E08981882F90E0F90102C03E
:101D5000F595E7958A95E2F7CF0181709070198A21
:101D6000009711F4F1E0F98B83E0698149890E94C1
:101D70009B0689818F5F898389818830C8F26B9641
:101D80000FB6F894DEBF0FBECDBFCF91DF9108959F
:101D9000DF93CF93CDB7DEB76B970FB6F894DEBF66
:101DA0000FBECDBF85E08A8B84E08B8B85E08C8B6A
:101DB00086E08D8B87E08E8B1F8A81E0888F82E0A2
:101DC000898F83E08A8F188AC4C08889282F30E0E1
:101DD000CE014396FC01E20FF31F908180E0692F52
:101DE00041E00E949B061F869FC08F85282F30E010
:101DF000CE014796FC01E20FF31F90819E012E5EFB
:101E00003F4F80E0692FA9010E9418088A89882322
:101E100009F087C08F85482F50E08889282F30E04F
:101E2000CA01880F991F880F991F820F931FFC0109
:101E3000E658FF4F8081898B80E090E0A8E4B3E40E
:101E40008B879C87AD87BE876B857C858D859E85BE
:101E500020E030E04AEF54E40E941702DC01CB019D
:101E60008F839887A987BA876F81788589859A85B6
:101E700020E030E040E85FE30E94710388232CF407
:101E800081E090E09E838D833FC06F817885898556
:101E90009A8520E03FEF4FE757E40E9411031816A0
:101EA0004CF56B857C858D859E8520E030E040E299
:101EB00051E40E941702DC01CB01BC01CD010E945C
:101EC0004100DC01CB019E838D830FC088EC90E044
:101ED0009C838B838B819C810197F1F79C838B83FF
:101EE0008D819E8101979E838D838D819E81009738
:101EF00069F714C06F81788589859A850E944100B1
:101F0000DC01CB019E838D838D819E819A838983A1
:101F100089819A810197F1F79A83898389898B8FC7
:101F20001EC08F858F5F8F878F85843008F45DCFCB
:101F30008889282F30E0CE014396FC01E20FF31F81
:101F4000908180E0692F40E00E949B0688898F5F26
:101F5000888B8889843008F438CF85E68B8F8B8D09
:101F60006B960FB6F894DEBF0FBECDBFCF91DF9159
:101F70000895DF93CF93CDB7DEB72F970FB6F894C0
:101F8000DEBF0FBECDBF8F8783E060E041E00E94DF
:101F90009B0683E061E041E00E949B0681E06F8543
:101FA0000E94C10A83E062E040E00E949B0680E05C
:101FB00090E0A0E4B0E48B879C87AD87BE876B85FB
:101FC0007C858D859E8520E030E04AEF54E40E94B8
:101FD0001702DC01CB018F839887A987BA876F81AD
:101FE000788589859A8520E030E040E85FE30E94AB
:101FF000710388232CF481E090E09E838D833FC0A1
:102000006F81788589859A8520E03FEF4FE757E417
:102010000E94110318164CF56B857C858D859E8575
:1020200020E030E040E251E40E941702DC01CB01E5
:10203000BC01CD010E944100DC01CB019E838D8358
:102040000FC088EC90E09C838B838B819C810197EF
:10205000F1F79C838B838D819E8101979E838D8375
:102060008D819E81009769F714C06F81788589857D
:102070009A850E944100DC01CB019E838D838D8176
:102080009E819A83898389819A810197F1F79A8346
:10209000898383E062E041E00E949B062F960FB6A1
:1020A000F894DEBF0FBECDBFCF91DF910895DF93CF
:1020B000CF93CDB7DEB72F970FB6F894DEBF0FBE24
:1020C000CDBF8F8783E060E040E00E949B0683E005
:1020D00061E041E00E949B0681E06F850E94C10A99
:1020E00083E062E040E00E949B0680E090E0A0E494
:1020F000B0E48B879C87AD87BE876B857C858D859B
:102100009E8520E030E04AEF54E40E941702DC0193
:10211000CB018F839887A987BA876F817885898556
:102120009A8520E030E040E85FE30E947103882355
:102130002CF481E090E09E838D833FC06F81788591
:1021400089859A8520E03FEF4FE757E40E9411030D
:1021500018164CF56B857C858D859E8520E030E0DA
:1021600040E251E40E941702DC01CB01BC01CD0129
:102170000E944100DC01CB019E838D830FC088EC5F
:1021800090E09C838B838B819C810197F1F79C83EA
:102190008B838D819E8101979E838D838D819E810E
:1021A000009769F714C06F81788589859A850E94A8
:1021B0004100DC01CB019E838D838D819E819A83BA
:1021C000898389819A810197F1F79A83898383E0D2
:1021D00062E041E00E949B062F960FB6F894DEBFA6
:1021E0000FBECDBFCF91DF910895DF93CF93CDB7D1
:1021F000DEB781E00E94B90FCF91DF910895DF93A0
:10220000CF93CDB7DEB72E970FB6F894DEBF0FBED3
:10221000CDBF80E090E0A0E2B2E48B879C87AD87E1
:10222000BE876B857C858D859E8520E030E04AEFFA
:1022300054E40E941702DC01CB018F839887A987A1
:10224000BA876F81788589859A8520E030E040E8FB
:102250005FE30E94710388232CF481E090E09E8369
:102260008D833FC06F81788589859A8520E03FEF17
:102270004FE757E40E94110318164CF56B857C85D7
:102280008D859E8520E030E040E251E40E941702F7
:10229000DC01CB01BC01CD010E944100DC01CB017E
:1022A0009E838D830FC088EC90E09C838B838B8111
:1022B0009C810197F1F79C838B838D819E8101978F
:1022C0009E838D838D819E81009769F714C06F81F5
:1022D000788589859A850E944100DC01CB019E8327
:1022E0008D838D819E819A83898389819A810197CB
:1022F000F1F79A8389838FE30E94B90F8CE00E94E3
:10230000B90F81E00E94B90F2E960FB6F894DEBF88
:102310000FBECDBFCF91DF910895DF93CF9300D053
:102320000F92CDB7DEB78A836B838B8189838A81D5
:10233000813019F48981805C8983898180580E9469
:10234000B90F0F900F900F90CF91DF910895DF9309
:10235000CF93CDB7DEB727970FB6F894DEBF0FBE89
:10236000CDBF9C838B836D834E832F838D81882F7C
:1023700090E0880F991F880F991F880F991F8A83F3
:102380008A81805C0E94B90F19820EC08981282F32
:1023900030E08B819C81FC01E20FF31F80810E9461
:1023A000571089818F5F89838981883078F38E8186
:1023B0006F810E948D118D810E94571027960FB654
:1023C000F894DEBF0FBECDBFCF91DF910895DF93AC
:1023D000CF9300D0CDB7DEB79A83898389819A8164
:1023E0000097A1F089819A812AE030E0B9010E942A
:1023F0002814CB010E94E71189819A812AE030E0FC
:10240000B9010E942814805D0E9457100F900F9010
:10241000CF91DF910895DF93CF9300D000D00F923A
:10242000CDB7DEB79B838A836C834D838C816D81AE
:102430000E948D1119820EC08981282F30E08A8177
:102440009B81FC01E20FF31F80810E94571089815C
:102450008F5F89838981282F30E08A819B81FC01ED
:10246000E20FF31F8081882339F70F900F900F90B0
:102470000F900F90CF91DF910895DF93CF93CDB759
:10248000DEB7E0970FB6F894DEBF0FBECDBF1B8A54
:1024900081E08A8B82E0898B81E0888B8FE08F8757
:1024A0009E012C5E3F4F38A72FA38CE990E09AA79E
:1024B00089A798E09BA7E9A5FAA5008029A53AA5D8
:1024C0002F5F3F4F3AA729A7EFA1F8A500822FA1C0
:1024D00038A52F5F3F4F38A72FA33BA531503BA70F
:1024E0008BA5882341F7FE017C96FDA7ECA724E984
:1024F00030E03FA72EA738E038ABEEA5FFA500805F
:102500002EA53FA52F5F3F4F3FA72EA7ECA5FDA50A
:1025100000822CA53DA52F5F3F4F3DA72CA738A9D2
:10252000315038AB88A9882341F780E060E040E073
:102530000E949B0580E061E040E00E949B0580E0F6
:1025400062E040E00E949B0580E063E040E00E9482
:102550009B0580E060E040E00E949B0680E061E037
:1025600040E00E949B0680E062E040E00E949B0603
:1025700080E063E040E00E949B0680E064E041E090
:102580000E949B0580E065E041E00E949B0580E0A1
:1025900066E041E00E949B0580E067E041E00E9428
:1025A0009B0580E064E040E00E949B0680E065E0DF
:1025B00040E00E949B0680E066E040E00E949B06AF
:1025C00080E067E040E00E949B0683E061E00E94BB
:1025D0009C0881E061E00E949C080E94FF10CE01EF
:1025E000449660E04A8929890E94A711CE014C9641
:1025F00061E048892F850E94A71180E060E00E9479
:102600008D118B89805D0E9457100E94C80E8CA38B
:102610008CA1E82FF0E0FEA3EDA32DA13EA1243371
:102620003105B1F18DA19EA18533910534F4EDA161
:10263000FEA1E133F105E1F14AC02DA13EA1253310
:10264000310531F08DA19EA18633910589F03FC0FF
:102650008A898823E1F58A898F5F8A8B0E94F51029
:102660008A8969890E948D1180E00E9457102FC0CD
:1026700089898F3019F089898F5F898B0E94F510C5
:102680008A8969890E948D1180E00E9457101FC0BD
:102690008989823019F089898150898B0E94F510CF
:1026A0008A8969890E948D1180E00E9457100FC0AD
:1026B0008A89813019F48A8981508A8B0E94F510A9
:1026C0008A8969890E948D1180E00E94571088894B
:1026D0006F850E948D1180E20E9457108F85815076
:1026E0008F878F85813061F48B898F5F8B8B8FE033
:1026F0008F878889882319F481E0888B01C0188A24
:1027000088896F850E948D1181E00E9457108B8906
:10271000853009F47CC098898A89981729F49F85A7
:102720008989981709F473C080E090E0A8ECB2E4BE
:102730008B879C87AD87BE876B857C858D859E85C5
:1027400020E030E04AEF54E40E941702DC01CB01A4
:102750008F839887A987BA876F81788589859A85BD
:1027600020E030E040E85FE30E94710388232CF40E
:1027700081E090E09E838D833FC06F81788589855D
:102780009A8520E03FEF4FE757E40E9411031816A7
:102790004CF56B857C858D859E8520E030E040E2A0
:1027A00051E40E941702DC01CB01BC01CD010E9463
:1027B0004100DC01CB019E838D830FC088EC90E04B
:1027C0009C838B838B819C810197F1F79C838B8306
:1027D0008D819E8101979E838D838D819E8100973F
:1027E00069F70BCF6F81788589859A850E944100B2
:1027F000DC01CB019E838D838D819E819A838983A9
:1028000089819A810197F1F79A838983F6CE8B8922
:10281000853079F40E94F51080E690E060E047E0B2
:102820000E940B1284E690E061E047E00E940B12E8
:102830000EC00E94F51088E690E060E046E00E943D
:102840000B128DE690E061E046E00E940B12FFCF94
:10285000AA1BBB1B51E107C0AA1FBB1FA617B707C6
:1028600010F0A61BB70B881F991F5A95A9F78095E2
:102870009095BC01CD0108952F923F924F925F92A7
:102880006F927F928F929F92AF92BF92CF92DF9280
:10289000EF92FF920F931F93CF93DF93CDB7DEB7E5
:1028A000CA1BDB0B0FB6F894DEBF0FBECDBF099479
:1028B0002A88398848885F846E847D848C849B84D0
:1028C000AA84B984C884DF80EE80FD800C811B81DE
:1028D000AA81B981CE0FD11D0FB6F894DEBF0FBE0D
:0A28E000CDBFED010895F894FFCF7D
:1028EA00594F550057494E0047414D45004F5645EF
:1028FA00520000000000000000003031323334354D
:10290A00363738393031323334353F065B4F666DEE
:10291A007D077F6F04080408040804080E0A0E14D1
:04292A000E05040A88
:00000001FF
